{
  "address": "0xAB0Eca18049EA8222EC9c8b01342F62259a34d08",
  "abi": [
    {
      "inputs": [
        {
          "internalType": "address",
          "name": "token_",
          "type": "address"
        }
      ],
      "stateMutability": "nonpayable",
      "type": "constructor"
    },
    {
      "anonymous": false,
      "inputs": [
        {
          "indexed": true,
          "internalType": "address",
          "name": "_account",
          "type": "address"
        },
        {
          "indexed": false,
          "internalType": "uint256",
          "name": "_amount",
          "type": "uint256"
        }
      ],
      "name": "Deposit",
      "type": "event"
    },
    {
      "anonymous": false,
      "inputs": [
        {
          "indexed": true,
          "internalType": "address",
          "name": "_account",
          "type": "address"
        },
        {
          "indexed": false,
          "internalType": "uint256",
          "name": "_amount",
          "type": "uint256"
        }
      ],
      "name": "Withdraw",
      "type": "event"
    },
    {
      "inputs": [
        {
          "internalType": "address",
          "name": "",
          "type": "address"
        }
      ],
      "name": "_balance",
      "outputs": [
        {
          "internalType": "uint256",
          "name": "",
          "type": "uint256"
        }
      ],
      "stateMutability": "view",
      "type": "function"
    },
    {
      "inputs": [
        {
          "internalType": "address",
          "name": "_owner",
          "type": "address"
        },
        {
          "internalType": "address",
          "name": "_spender",
          "type": "address"
        },
        {
          "internalType": "uint256",
          "name": "_value",
          "type": "uint256"
        },
        {
          "internalType": "uint256",
          "name": "_deadline",
          "type": "uint256"
        },
        {
          "internalType": "uint8",
          "name": "_v",
          "type": "uint8"
        },
        {
          "internalType": "bytes32",
          "name": "_r",
          "type": "bytes32"
        },
        {
          "internalType": "bytes32",
          "name": "_s",
          "type": "bytes32"
        }
      ],
      "name": "depositWithSig",
      "outputs": [],
      "stateMutability": "nonpayable",
      "type": "function"
    },
    {
      "inputs": [
        {
          "internalType": "address",
          "name": "_owner",
          "type": "address"
        },
        {
          "internalType": "address",
          "name": "_spender",
          "type": "address"
        },
        {
          "internalType": "uint256",
          "name": "_value",
          "type": "uint256"
        },
        {
          "internalType": "uint256",
          "name": "_deadline",
          "type": "uint256"
        },
        {
          "internalType": "uint8",
          "name": "_v",
          "type": "uint8"
        },
        {
          "internalType": "bytes32",
          "name": "_r",
          "type": "bytes32"
        },
        {
          "internalType": "bytes32",
          "name": "_s",
          "type": "bytes32"
        }
      ],
      "name": "withdrawWithSig",
      "outputs": [],
      "stateMutability": "nonpayable",
      "type": "function"
    }
  ],
  "transactionHash": "0x18dece0ad6524fb17024c2284e5a2f9c96fc7f40fd887d28515b4bfc55f07970",
  "args": [
    "0xDB1D57e00ffFce12a821291DB857B4Af66735237"
  ],
  "numDeployments": 1,
  "solcInputHash": "acecc19f8e6e723b2c347389609c498e",
  "bytecode": "0x608060405234801561001057600080fd5b506040516106c03803806106c083398101604081905261002f91610059565b6001600081905580546001600160a01b0319166001600160a01b0392909216919091179055610089565b60006020828403121561006b57600080fd5b81516001600160a01b038116811461008257600080fd5b9392505050565b610628806100986000396000f3fe608060405234801561001057600080fd5b50600436106100415760003560e01c8063b08a405c14610046578063c27e97941461005b578063d3aceae21461006e575b600080fd5b61005961005436600461053b565b6100a0565b005b61005961006936600461053b565b61026d565b61008e61007c3660046105ae565b60026020526000908152604090205481565b60405190815260200160405180910390f35b6100a861049f565b6001546040517fd505accf00000000000000000000000000000000000000000000000000000000815273ffffffffffffffffffffffffffffffffffffffff89811660048301528881166024830152604482018890526064820187905260ff8616608483015260a4820185905260c482018490529091169063d505accf9060e401600060405180830381600087803b15801561014257600080fd5b505af1158015610156573d6000803e3d6000fd5b5050505073ffffffffffffffffffffffffffffffffffffffff8781166000908152600260205260409081902087905560015490517fa9059cbb0000000000000000000000000000000000000000000000000000000081523060048201526024810188905291169063a9059cbb906044016020604051808303816000875af11580156101e5573d6000803e3d6000fd5b505050506040513d601f19601f8201168201806040525081019061020991906105d0565b508673ffffffffffffffffffffffffffffffffffffffff167fe1fffcc4923d04b559f4d29a8bfc6cda04eb5b0d3c460751c2402c5c5cc9109c8660405161025291815260200190565b60405180910390a26102646001600055565b50505050505050565b61027561049f565b73ffffffffffffffffffffffffffffffffffffffff8716600090815260026020526040902054851115610309576040517f08c379a000000000000000000000000000000000000000000000000000000000815260206004820152601260248201527f696e73756666696369656e742066756e6473000000000000000000000000000060448201526064015b60405180910390fd5b6001546040517fd505accf00000000000000000000000000000000000000000000000000000000815273ffffffffffffffffffffffffffffffffffffffff89811660048301528881166024830152604482018890526064820187905260ff8616608483015260a4820185905260c482018490529091169063d505accf9060e401600060405180830381600087803b1580156103a357600080fd5b505af11580156103b7573d6000803e3d6000fd5b50506001546040517fa9059cbb0000000000000000000000000000000000000000000000000000000081523060048201526024810189905273ffffffffffffffffffffffffffffffffffffffff909116925063a9059cbb91506044016020604051808303816000875af1158015610432573d6000803e3d6000fd5b505050506040513d601f19601f8201168201806040525081019061045691906105d0565b508673ffffffffffffffffffffffffffffffffffffffff167f884edad9ce6fa2440d8a54cc123490eb96d2768479d49ff9c7366125a94243648660405161025291815260200190565b60026000540361050b576040517f08c379a000000000000000000000000000000000000000000000000000000000815260206004820152601f60248201527f5265656e7472616e637947756172643a207265656e7472616e742063616c6c006044820152606401610300565b6002600055565b803573ffffffffffffffffffffffffffffffffffffffff8116811461053657600080fd5b919050565b600080600080600080600060e0888a03121561055657600080fd5b61055f88610512565b965061056d60208901610512565b95506040880135945060608801359350608088013560ff8116811461059157600080fd5b9699959850939692959460a0840135945060c09093013592915050565b6000602082840312156105c057600080fd5b6105c982610512565b9392505050565b6000602082840312156105e257600080fd5b815180151581146105c957600080fdfea26469706673582212208f5bfce24ac8df9f0e4537dba914a120fbbe7cb9a9af2b6d7483f0e8a851874e64736f6c63430008110033",
  "devdoc": {
    "kind": "dev",
    "methods": {},
    "version": 1
  },
  "userdoc": {
    "kind": "user",
    "methods": {},
    "version": 1
  },
  "storageLayout": {
    "storage": [
      {
        "astId": 10,
        "contract": "src/Bank.sol:Bank",
        "label": "_status",
        "offset": 0,
        "slot": "0",
        "type": "t_uint256"
      },
      {
        "astId": 10763,
        "contract": "src/Bank.sol:Bank",
        "label": "_token",
        "offset": 0,
        "slot": "1",
        "type": "t_address"
      },
      {
        "astId": 10767,
        "contract": "src/Bank.sol:Bank",
        "label": "_balance",
        "offset": 0,
        "slot": "2",
        "type": "t_mapping(t_address,t_uint256)"
      }
    ],
    "types": {
      "t_address": {
        "encoding": "inplace",
        "label": "address",
        "numberOfBytes": "20"
      },
      "t_mapping(t_address,t_uint256)": {
        "encoding": "mapping",
        "key": "t_address",
        "label": "mapping(address => uint256)",
        "numberOfBytes": "32",
        "value": "t_uint256"
      },
      "t_uint256": {
        "encoding": "inplace",
        "label": "uint256",
        "numberOfBytes": "32"
      }
    }
  }
}